:100000000C942A000C9447000C9447000C94470071
:100010000C9447000C9447000C9447000C94470044
:100020000C9447000C9447000C94D2080C942F09B0
:100030000C9447000C9447000C9447000C94470024
:100040000C94730D0C9447000C9447000C944700DB
:100050000C94470011241FBECFE5D4E0DEBFCDBF16
:1000600010E0A8E6B0E001C01D92AB37B107E1F7A0
:1000700010E0A0E6B0E0E6E7FFE102C005900D92D7
:10008000A836B107D9F70E945A0F0C94B90F0C94F7
:100090000000EF92FF920F931F937B018C0120E0F1
:1000A00030E040E05FE40E94490388238CF0C801FF
:1000B000B70120E030E040E05FE40E94C1010E940F
:1000C000A9039B01AC01205030404040504806C07D
:1000D000C801B7010E94A9039B01AC01B901CA0183
:1000E0001F910F91FF90EF900895A0E0B0E0EBE733
:1000F000F0E00C94820FDC012B01FA019C9192300C
:1001000008F439C1EB018881823008F433C194309E
:1001100069F4843009F02FC111969C91119789815F
:10012000981709F428C1A0E6B0E025C1843009F48D
:1001300021C18230A9F4923009F01DC19A01AD01AC
:1001400088E0EA010990AE01E90109929E0181501F
:10015000C1F7E201898111969C918923818308C1AD
:10016000923009F407C112962D903C901397EB0141
:100170008A819B811496AD90BD90CD90DC901797AD
:10018000EC80FD800E811F819101281B390BB90184
:1001900037FF04C066277727621B730B6032710537
:1001A0000CF061C0121613066CF537014801062EDB
:1001B00004C096948794779467940A94D2F721E0C8
:1001C00030E040E050E004C0220F331F441F551FB1
:1001D0006A95D2F721503040404050402E213F21B7
:1001E00040235123211531054105510521F021E01E
:1001F00030E040E050E079018A01E628F72808293C
:1002000019293CC0232BD1F1260E371E350146019A
:10021000062E04C096948794779467940A94D2F734
:1002200021E030E040E050E004C0220F331F441FC3
:10023000551F6A95D2F721503040404050402A2146
:100240003B214C215D21211531054105510521F04E
:1002500021E030E040E050E059016A01A628B728CB
:10026000C828D9280BC0821593052CF01C01AA249C
:10027000BB24650103C0EE24FF24870111969C91E5
:10028000D20111968C91981709F445C0992339F041
:10029000A80197012A193B094C095D0906C0A6016E
:1002A00095012E193F09400B510B57FD08C01182D3
:1002B0003382228224833583468357831DC081E0A5
:1002C00081833382228288279927DC01821B930B4A
:1002D000A40BB50B84839583A683B7830DC0220F2F
:1002E000331F441F551F24833583468357838281E0
:1002F000938101979383828324813581468157813D
:10030000DA01C9010197A109B1098F5F9F4FAF4F72
:10031000BF4328F30BC0918333822282EA0CFB1C7B
:100320000C1D1D1DE482F5820683178383E0808304
:10033000248135814681578157FF1AC0C901AA27F8
:1003400097FDA095BA2F81709070A070B0705695EF
:10035000479537952795822B932BA42BB52B848318
:100360009583A683B7838281938101969383828349
:10037000DF0101C0D201CD01CDB7DEB7E2E10C94BF
:100380009E0FA0E2B0E0E7ECF1E00C948E0F6983E1
:100390007A838B839C832D833E834F835887E9E048
:1003A000EE2EF12CEC0EFD1ECE010196B7010E943F
:1003B000D2048E010F5E1F4FCE010596B8010E9438
:1003C000D2048A8991E089278A8BC701B801AE01DE
:1003D000475E5F4F0E9475000E94FD03A096E6E015
:1003E0000C94AA0FA0E2B0E0E8EFF1E00C948E0FBD
:1003F00069837A838B839C832D833E834F835887C5
:10040000F9E0EF2EF12CEC0EFD1ECE010196B701A6
:100410000E94D2048E010F5E1F4FCE010596B801D7
:100420000E94D204C701B801AE01475E5F4F0E942F
:1004300075000E94FD03A096E6E00C94AA0FA0E2CE
:10044000B0E0E5E2F2E00C94820F69837A838B835B
:100450009C832D833E834F835887CE010196BE0136
:10046000675F7F4F0E94D204CE010596BE016F5E8A
:100470007F4F0E94D2049985923088F0898982301A
:10048000C8F0943019F4823051F404C0843029F457
:10049000923081F480E690E0C6C0923049F420E0CA
:1004A0009A858A89981321E02A87CE010996BBC0D4
:1004B000823049F420E09A858A89981321E02A8BBA
:1004C000CE014196B0C02D843E844F8458886D88FB
:1004D0007E888F88988CEE24FF248701AA24BB2471
:1004E000650140E050E060E070E0E0E0F0E0C10174
:1004F00081709070892BE9F0E60CF71C081D191D1E
:100500009A01AB012A0D3B1D4C1D5D1D80E090E062
:10051000A0E0B0E0E614F7040805190520F481E036
:1005200090E0A0E0B0E0BA01A901480F591F6A1F8E
:100530007B1FAA0CBB1CCC1CDD1C97FE08C081E0F5
:1005400090E0A0E0B0E0A82AB92ACA2ADB2A3196B6
:10055000E032F10549F0660C771C881C991C569412
:10056000479437942794C3CFFA85EA892B893C892D
:100570008B859C85280F391F2E5F3F4F17C0CA01FE
:1005800081709070892B61F016950795F794E79428
:1005900080E090E0A0E0B0E8E82AF92A0A2B1B2BC3
:1005A00076956795579547952F5F3F4F77FDE7CF36
:1005B0000CC0440F551F661F771F17FD4160EE0CDE
:1005C000FF1C001F111F21503040403090E05907A0
:1005D00090E0690790E4790760F32B8F3C8FDB0193
:1005E000CA018F779070A070B07080349105A1051A
:1005F000B10561F447FD0AC0E114F10401051105DC
:1006000029F0405C5F4F6F4F7F4F40781A8EFE1786
:1006100011F081E08A8F4D8F5E8F6F8F78A383E01A
:10062000898FCE0149960E94FD03A096E2E10C94C9
:100630009E0FA8E1B0E0EFE1F3E00C948E0F698328
:100640007A838B839C832D833E834F83588789E0F5
:10065000E82EF12CEC0EFD1ECE010196B7010E9492
:10066000D2048E010F5E1F4FCE010596B8010E9485
:10067000D2048985823040F08989823028F0C70110
:10068000B8010E944A0501C08FEF6896E6E00C941D
:10069000AA0FA8E1B0E0EFE4F3E00C948E0F6983B9
:1006A0007A838B839C832D833E834F83588789E095
:1006B000E82EF12CEC0EFD1ECE010196B7010E9432
:1006C000D2048E010F5E1F4FCE010596B8010E9425
:1006D000D2048985823040F08989823028F0C701B0
:1006E000B8010E944A0501C08FEF6896E6E00C94BD
:1006F000AA0FA8E1B0E0EFE7F3E00C948E0F698356
:100700007A838B839C832D833E834F83588789E034
:10071000E82EF12CEC0EFD1ECE010196B7010E94D1
:10072000D2048E010F5E1F4FCE010596B8010E94C4
:10073000D2048985823040F08989823028F0C7014F
:10074000B8010E944A0501C081E06896E6E00C9479
:10075000AA0FACE0B0E0EFEAF3E00C94920F6983EB
:100760007A838B839C83CE010196BE016B5F7F4FA2
:100770000E94D2048D81823061F1823050F1843048
:1007800021F48E81882351F12EC02F81388537FDC9
:1007900020C06E812F3131051CF06623F9F023C093
:1007A0008EE190E0821B930B29853A854B855C8511
:1007B00004C056954795379527958A95D2F76623B5
:1007C000B1F050954095309521953F4F4F4F5F4F79
:1007D0000EC020E030E040E050E009C02FEF3FEFD6
:1007E0004FEF5FE704C020E030E040E050E8B9019F
:1007F000CA012C96E2E00C94AE0FDF92EF92FF92CA
:100800000F931F93FC01E480F58006811781D1804E
:100810008081823048F480E090E0A0E1B0E0E82AF6
:10082000F92A0A2B1B2BA5C0843009F49FC0823003
:1008300021F4EE24FF24870105C0E114F104010531
:10084000110519F4E0E0F0E096C0628173819FEF3A
:10085000623879070CF05BC022E83FEF261B370BAC
:100860002A3131052CF020E030E040E050E02AC091
:10087000B801A701022E04C0769567955795479554
:100880000A94D2F781E090E0A0E0B0E004C0880FC5
:10089000991FAA1FBB1F2A95D2F70197A109B10979
:1008A0008E219F21A023B1230097A105B10521F03E
:1008B00081E090E0A0E0B0E09A01AB01282B392B59
:1008C0004A2B5B2BDA01C9018F779070A070B07052
:1008D00080349105A105B10539F427FF09C0205CDA
:1008E0003F4F4F4F5F4F04C0215C3F4F4F4F5F4F13
:1008F000E0E0F0E02030A0E03A07A0E04A07A0E402
:100900005A0710F0E1E0F0E079018A0127C0603871
:10091000710564F5FB01E158FF4FD801C7018F77DE
:100920009070A070B07080349105A105B10539F4C4
:10093000E7FE0DC080E490E0A0E0B0E004C08FE3EB
:1009400090E0A0E0B0E0E80EF91E0A1F1B1F17FFA1
:1009500005C016950795F794E794319687E01695AC
:100960000795F794E7948A95D1F705C0EE24FF2404
:100970008701EFEFF0E06E2F679566276795902F60
:100980009F77D794DD24D7948E2F8695492F462BB9
:10099000582F5D29B701CA011F910F91FF90EF9069
:1009A000DF900895FC01DB01408151812281622F9B
:1009B0006F7770E0221F2227221F9381892F880FD3
:1009C000822B282F30E0991F9927991F11969C930D
:1009D000119721153105A9F54115510561057105DD
:1009E00011F482E037C082E89FEF13969C938E93B8
:1009F00012979A01AB0167E0220F331F441F551F66
:100A00006A95D1F783E08C930DC0220F331F441FEA
:100A1000551F12968D919C911397019713969C9355
:100A20008E931297203080E0380780E0480780E4FA
:100A3000580758F314962D933D934D935C93179755
:100A400008952F3F310579F4411551056105710570
:100A500019F484E08C93089564FF03C081E08C93C3
:100A600012C01C9210C02F57304013963C932E9307
:100A7000129783E08C9387E0440F551F661F771F02
:100A80008A95D1F7706414964D935D936D937C9322
:100A9000179708951F93DC01FB019C91923008F495
:100AA00047C08081823008F443C0943051F41196DD
:100AB0001C91843099F58181682F70E0611B710968
:100AC0003FC0843021F0923031F48230B9F181811D
:100AD000882389F12DC011961C9111978230F1F075
:100AE00081811817D9F412962D913C911397828128
:100AF00093818217930794F028173907BCF0149656
:100B00008D919D910D90BC91A02D248135814681C0
:100B10005781281739074A075B0718F4112341F05A
:100B20000AC082179307A407B50740F4112319F0F0
:100B300061E070E005C06FEF7FEF02C060E070E041
:100B4000CB011F910895DF93CF93CDB7DEB7AFE50B
:100B5000B0E0EFE5F0E0808180688C93CF91DF9189
:100B60000895DF93CF93CDB7DEB7AFE5B0E0EFE503
:100B7000F0E080818F778C93CF91DF910895DF93A0
:100B8000CF93CDB7DEB72A970FB6F894DEBF0FBE6E
:100B9000CDBF89836A838981282F30E03A872987EE
:100BA00089859A858130910509F466C029853A8541
:100BB0002230310509F4BBC089859A85009709F078
:100BC000D5C08A81282F30E038872F838F81988580
:100BD0008130910521F12F813885223031052CF4A7
:100BE0008F819885009761F0C1C02F8138852230B0
:100BF000310521F18F8198858330910571F1B6C05F
:100C0000A5E5B0E0E5E5F0E080818E7F8C93A5E579
:100C1000B0E0E5E5F0E080818D7F8C93A7C0A5E58D
:100C2000B0E0E5E5F0E0808181608C93A5E5B0E07F
:100C3000E5E5F0E080818D7F8C9398C0A5E5B0E07C
:100C4000E5E5F0E080818E7F8C93A5E5B0E0E5E5F9
:100C5000F0E0808182608C9389C0A5E5B0E0E5E595
:100C6000F0E0808181608C93A5E5B0E0E5E5F0E0FF
:100C7000808182608C937AC08A81282F30E03E8305
:100C80002D838D819E818130910521F12D813E81C1
:100C9000223031052CF48D819E81009761F066C071
:100CA0002D813E812230310521F18D819E8183305D
:100CB000910571F15BC0A5E5B0E0E5E5F0E080816C
:100CC0008B7F8C93A5E5B0E0E5E5F0E08081877F40
:100CD0008C934CC0A5E5B0E0E5E5F0E08081846050
:100CE0008C93A5E5B0E0E5E5F0E08081877F8C930B
:100CF0003DC0A5E5B0E0E5E5F0E080818B7F8C9319
:100D0000A5E5B0E0E5E5F0E0808188608C932EC039
:100D1000A5E5B0E0E5E5F0E0808184608C93A5E591
:100D2000B0E0E5E5F0E0808188608C931FC08A81A7
:100D3000282F30E03C832B838B819C81823091056E
:100D400031F02B813C812330310549F00FC0A4E5FF
:100D5000B0E0E4E5F0E080818F7B8C9307C0A4E5F0
:100D6000B0E0E4E5F0E0808180648C932A960FB6D1
:100D7000F894DEBF0FBECDBFCF91DF910895DF9312
:100D8000CF9300D00F92CDB7DEB789838981282F0A
:100D900030E03B832A838A819B818130910589F0F1
:100DA0002A813B8122303105A1F08A819B81009705
:100DB000B9F4ABE5B0E0EBE5F0E0808180648C93C2
:100DC0000FC0ABE5B0E0EBE5F0E0808180688C938C
:100DD00007C0ABE5B0E0EBE5F0E0808180628C938A
:100DE0000F900F900F90CF91DF910895DF93CF93E5
:100DF00000D00F92CDB7DEB789838981282F30E0EC
:100E00003B832A838A819B818130910589F02A81E5
:100E10003B8122303105A1F08A819B810097B9F492
:100E2000ABE5B0E0EBE5F0E080818F7B8C930FC009
:100E3000ABE5B0E0EBE5F0E080818F778C9307C005
:100E4000ABE5B0E0EBE5F0E080818F7D8C930F9017
:100E50000F900F90CF91DF910895DF93CF9300D043
:100E60000F92CDB7DEB789838981282F30E03B838D
:100E70002A838A819B8181309105C1F02A813B813F
:100E80002230310581F18A819B810097D1F5A3E55C
:100E9000B0E0E3E5F0E0808188608C93A3E5B0E00A
:100EA000E3E5F0E0808180648C932BC0AEE4B0E099
:100EB000EEE4F0E080818F7E8C93AFE4B0E0EFE46D
:100EC000F0E080818D7F8C93AEE4B0E0EEE4F0E062
:100ED000808188608C93AFE4B0E0EFE4F0E0808143
:100EE00081608C930EC0A5E4B0E0E5E4F0E0808181
:100EF00080648C93A5E4B0E0E5E4F0E08081886054
:100F00008C930F900F900F90CF91DF910895DF9306
:100F1000CF9300D000D00F92CDB7DEB789837B830B
:100F20006A835D834C838A819B81CC01A0E0B0E021
:100F30008093740090937500A0937600B09377002F
:100F40008C819D81909371008093700089810E94B3
:100F500053080F900F900F900F900F90CF91DF914B
:100F60000895DF93CF9300D000D00F92CDB7DEB7B6
:100F700089837B836A838981282F30E03D832C839A
:100F80008C819D818130910571F02C813D812230D1
:100F9000310591F08C819D81009791F4ECE5F0E0B2
:100FA0008A8180830DC0EAE4F0E08A818083E8E4EE
:100FB000F0E08A81808304C0E3E4F0E08A818083EA
:100FC0000F900F900F900F900F90CF91DF91089599
:100FD000DF93CF93CDB7DEB727970FB6F894DEBF78
:100FE0000FBECDBF89837B836A835D834C833F8340
:100FF0002E838A819B81CC01A0E0B0E080937400B5
:1010000090937500A0937600B09377008E819F81B6
:1010100090937300809372002C813D818981B90186
:101020000E94B10789810E94530827960FB6F89451
:10103000DEBF0FBECDBFCF91DF910895DF93CF9379
:1010400000D000D00F92CDB7DEB789837B836A834F
:101050008981282F30E03D832C838C819D818130D4
:10106000910571F02C813D812230310581F08C8118
:101070009D81009781F4E2E5F0E08A8180830BC0D6
:10108000ECE4F0E08A819B819183808304C0E4E4F6
:10109000F0E08A8180830F900F900F900F900F9057
:1010A000CF91DF910895DF93CF9300D00F92CDB70A
:1010B000DEB789838981282F30E03B832A838A81A8
:1010C0009B8181309105A1F02A813B81223031053D
:1010D00011F18A819B81009741F5E2E5F0E01082F1
:1010E000A3E5B0E0E3E5F0E0808183628C931DC06E
:1010F000AEE4B0E0EEE4F0E0808183608C93AFE496
:10110000B0E0EFE4F0E0808180688C93E6E4F0E00A
:1011100087E880830AC0E4E4F0E01082A5E4B0E050
:10112000E5E4F0E0808184628C930F900F900F9043
:10113000CF91DF910895DF93CF9300D00F92CDB779
:10114000DEB789838981282F30E03B832A838A8117
:101150009B818130910589F02A813B8122303105C4
:10116000A1F08A819B810097B9F4A3E5B0E0E3E5A3
:10117000F0E08081887F8C930FC0AEE4B0E0EEE4B5
:10118000F0E080818E7F8C9307C0A5E4B0E0E5E4B9
:10119000F0E08081887F8C930F900F900F90CF911B
:1011A000DF9108951F920F920FB60F9211242F9383
:1011B0003F934F935F936F937F938F939F93AF93DF
:1011C000BF93EF93FF93DF93CF93CDB7DEB78091BB
:1011D000680090916900A0916A00B0916B0001963F
:1011E000A11DB11D8093680090936900A0936A00CF
:1011F000B0936B00209168003091690040916A00C3
:1012000050916B008091740090917500A0917600D0
:10121000B0917700281739074A075B0769F4E09116
:101220007200F091730009951092680010926900A5
:1012300010926A0010926B00CF91DF91FF91EF91B5
:10124000BF91AF919F918F917F916F915F914F91DE
:101250003F912F910F900FBE0F901F9018951F92E6
:101260000F920FB60F9211242F933F934F935F93DA
:101270006F937F938F939F93AF93BF93EF93FF935E
:10128000DF93CF93CDB7DEB780916C0090916D0066
:10129000A0916E00B0916F000196A11DB11D8093C9
:1012A0006C0090936D00A0936E00B0936F0020913E
:1012B0006C0030916D0040916E0050916F008091F4
:1012C000740090917500A0917600B0917700281776
:1012D00039074A075B0769F4E0917000F0917100EB
:1012E000099510926C0010926D0010926E00109291
:1012F0006F00CF91DF91FF91EF91BF91AF919F91DF
:101300008F917F916F915F914F913F912F910F90AE
:101310000FBE0F901F901895DF93CF93CDB7DEB718
:101320002D970FB6F894DEBF0FBECDBF89836A83B9
:101330004B838981843008F008C18A81883008F0A5
:1013400004C18B81823008F000C18981282F30E0F0
:101350003D872C878C859D858130910509F44FC090
:101360002C853D85223031052CF48C859D85009798
:1013700071F0EBC02C853D852230310509F477C032
:101380008C859D858330910509F4A9C0DEC08B81D1
:10139000282F30E03B872A878A859B850097D1F0EC
:1013A0002A853B852130310509F0CFC0AAE3B0E0A2
:1013B000EAE3F0E08081482F8A81282F30E081E045
:1013C00090E0022E02C0880F991F0A94E2F7842B46
:1013D0008C93BBC0AAE3B0E0EAE3F0E08081482F41
:1013E0008A81282F30E081E090E0022E02C0880F31
:1013F000991F0A94E2F7809584238C93A6C08B8171
:10140000282F30E039872887888599850097D1F083
:10141000288539852130310509F097C0A7E3B0E070
:10142000E7E3F0E08081482F8A81282F30E081E0D7
:1014300090E0022E02C0880F991F0A94E2F7842BD5
:101440008C9383C0A7E3B0E0E7E3F0E08081482F0E
:101450008A81282F30E081E090E0022E02C0880FC0
:10146000991F0A94E2F7809584238C936EC08B8138
:10147000282F30E03F832E838E819F810097D1F00B
:101480002E813F812130310509F05FC0A4E3B0E037
:10149000E4E3F0E08081482F8A81282F30E081E06A
:1014A00090E0022E02C0880F991F0A94E2F7842B65
:1014B0008C934BC0A4E3B0E0E4E3F0E08081482FDC
:1014C0008A81282F30E081E090E0022E02C0880F50
:1014D000991F0A94E2F7809584238C9336C08B8100
:1014E000282F30E03D832C838C819D810097C9F0AB
:1014F0002C813D812130310541F5A1E3B0E0E1E3EC
:10150000F0E08081482F8A81282F30E081E090E050
:10151000022E02C0880F991F0A94E2F7842B8C9345
:1015200014C0A1E3B0E0E1E3F0E08081482F8A81BC
:10153000282F30E081E090E0022E02C0880F991F32
:101540000A94E2F7809584238C932D960FB6F89435
:10155000DEBF0FBECDBFCF91DF910895DF93CF9354
:10156000CDB7DEB72D970FB6F894DEBF0FBECDBF57
:1015700089836A834B838981843008F008C18A811A
:10158000883008F004C18B81823008F000C1898165
:10159000282F30E03D872C878C859D8581309105F3
:1015A00009F44FC02C853D85223031052CF48C8503
:1015B0009D85009771F0EBC02C853D85223031056B
:1015C00009F477C08C859D858330910509F4A9C005
:1015D000DEC08B81282F30E03B872A878A859B8558
:1015E0000097D1F02A853B852130310509F0CFC025
:1015F000ABE3B0E0EBE3F0E08081482F8A81282F55
:1016000030E081E090E0022E02C0880F991F0A941A
:10161000E2F7842B8C93BBC0ABE3B0E0EBE3F0E0EC
:101620008081482F8A81282F30E081E090E0022ECF
:1016300002C0880F991F0A94E2F7809584238C9347
:10164000A6C08B81282F30E0398728878885998527
:101650000097D1F0288539852130310509F097C0F0
:10166000A8E3B0E0E8E3F0E08081482F8A81282FEA
:1016700030E081E090E0022E02C0880F991F0A94AA
:10168000E2F7842B8C9383C0A8E3B0E0E8E3F0E0BA
:101690008081482F8A81282F30E081E090E0022E5F
:1016A00002C0880F991F0A94E2F7809584238C93D7
:1016B0006EC08B81282F30E03F832E838E819F81E7
:1016C0000097D1F02E813F812130310509F05FC0B4
:1016D000A5E3B0E0E5E3F0E08081482F8A81282F80
:1016E00030E081E090E0022E02C0880F991F0A943A
:1016F000E2F7842B8C934BC0A5E3B0E0E5E3F0E088
:101700008081482F8A81282F30E081E090E0022EEE
:1017100002C0880F991F0A94E2F7809584238C9366
:1017200036C08B81282F30E03D832C838C819D81B6
:101730000097C9F02C813D812130310541F5A2E3AC
:10174000B0E0E2E3F0E08081482F8A81282F30E08A
:1017500081E090E0022E02C0880F991F0A94E2F700
:10176000842B8C9314C0A2E3B0E0E2E3F0E080812C
:10177000482F8A81282F30E081E090E0022E02C0BD
:10178000880F991F0A94E2F7809584238C932D96F5
:101790000FB6F894DEBF0FBECDBFCF91DF91089595
:1017A000DF93CF9300D000D00F92CDB7DEB78A83FE
:1017B0006B8385E089838A81843008F06BC08B81DC
:1017C000883008F067C08A81282F30E03D832C8361
:1017D0004C815D814130510541F18C819D81823088
:1017E000910534F42C813D812115310561F052C001
:1017F0004C815D814230510551F18C819D81833056
:101800009105B9F147C0E9E3F0E08081282F30E08D
:101810008B81882F90E0A90102C0559547958A9544
:10182000E2F7CA018170898335C0E6E3F0E0808188
:10183000282F30E08B81882F90E0A90102C05595B8
:1018400047958A95E2F7CA018170898323C0E3E353
:10185000F0E08081282F30E08B81882F90E0A90173
:1018600002C0559547958A95E2F7CA018170898330
:1018700011C0E0E3F0E08081282F30E08B81882FD9
:1018800090E0A90102C0559547958A95E2F7CA01F3
:101890008170898389810F900F900F900F900F9026
:1018A000CF91DF910895DF93CF9300D000D0CDB7D3
:1018B000DEB789836A838981843090F58981282FF6
:1018C00030E03C832B838B819C8181309105D1F06A
:1018D0002B813C81223031052CF48B819C81009737
:1018E00061F01EC02B813C812230310581F08B815B
:1018F0009C818330910581F013C0EAE3F0E08A8196
:1019000080830EC0E7E3F0E08A81808309C0E4E3CE
:10191000F0E08A81808304C0E1E3F0E08A81808383
:101920000F900F900F900F90CF91DF910895DF935C
:10193000CF9300D000D0CDB7DEB789836A83898189
:10194000843090F58981282F30E03C832B838B8174
:101950009C8181309105D1F02B813C812230310571
:101960002CF48B819C81009761F01EC02B813C81FF
:101970002230310581F08B819C818330910581F08B
:1019800013C0EBE3F0E08A8180830EC0E8E3F0E06F
:101990008A81808309C0E5E3F0E08A81808304C006
:1019A000E2E3F0E08A8180830F900F900F900F9018
:1019B000CF91DF910895DF93CF93CDB7DEB7A7E244
:1019C000B0E0E7E2F0E080818F778C93A7E2B0E0AF
:1019D000E7E2F0E0808180648C93A7E2B0E0E7E288
:1019E000F0E080818F7D8C93A6E2B0E0E6E2F0E04B
:1019F0008081887F86608C93A6E2B0E0E6E2F0E02A
:101A0000808188608C93A6E2B0E0E6E2F0E080811D
:101A100080688C93CF91DF910895DF93CF9300D0AE
:101A2000CDB7DEB78983A7E2B0E0E7E2F0E08081DE
:101A3000982F907E89818770892B8C93A6E2B0E0E5
:101A4000E6E2F0E0808180648C93E6E2F0E0808161
:101A5000A6E2B0E0E6E2F0E080818F7E8C93E4E2E3
:101A6000F0E08081882F90E00F900F90CF91DF9170
:101A70000895DF93CF930F92CDB7DEB78983A7E2A6
:101A8000B0E0E7E2F0E08081982F907E8981877056
:101A9000892B8C93A6E2B0E0E6E2F0E080818064DE
:101AA0008C930F90CF91DF910895DF93CF93CDB7B3
:101AB000DEB7E4E2F0E08081882F90E0CF91DF9103
:101AC0000895DF93CF9300D0CDB7DEB79A83898393
:101AD00089819A8190937A00809379000F900F907A
:101AE000CF91DF9108951F920F920FB60F9211249C
:101AF0002F933F934F935F936F937F938F939F9316
:101B0000AF93BF93EF93FF93DF93CF93CDB7DEB740
:101B1000E0917900F0917A000995CF91DF91FF91E2
:101B2000EF91BF91AF919F918F917F916F915F9155
:101B30004F913F912F910F900FBE0F901F901895CE
:101B4000DF93CF93CDB7DEB760970FB6F894DEBFC3
:101B50000FBECDBF188A8889282F30E080E0B901F8
:101B60000E94B10780E090E0A8ECB2E48B879C87EC
:101B7000AD87BE876B857C858D859E8520E030E0B6
:101B80004AE753E40E941F02DC01CB018F83988750
:101B9000A987BA876F81788589859A8520E030E0AA
:101BA00040E85FE30E94790388232CF481E090E011
:101BB0009E838D833FC06F81788589859A8520E0DB
:101BC0003FEF4FE757E40E94190318164CF56B8559
:101BD0007C858D859E8520E030E040E251E40E94C6
:101BE0001F02DC01CB01BC01CD010E944900DC01D8
:101BF000CB019E838D830FC089E190E09C838B8312
:101C00008B819C810197F1F79C838B838D819E81D1
:101C100001979E838D838D819E81009769F714C003
:101C20006F81788589859A850E944900DC01CB0106
:101C30009E838D838D819E819A83898389819A81F8
:101C40000197F1F79A83898388898F5F888B83CF87
:101C5000DF93CF93CDB7DEB7A4970FB6F894DEBF6E
:101C60000FBECDBF81E00E942D0788EE93E09CA3BC
:101C70008BA380ED97E09AA389A38BA19CA198A345
:101C80008F8F7DC02F8D38A181E0B9010E94B107EF
:101C900080E090E0A0E2B1E4898F9A8FAB8FBC8F97
:101CA000698D7A8D8B8D9C8D20E030E04AE753E47E
:101CB0000E941F02DC01CB018D8B9E8BAF8BB88FF6
:101CC0006D897E898F89988D20E030E040E85FE360
:101CD0000E94790388232CF481E090E09C8B8B8B0D
:101CE0003FC06D897E898F89988D20E03FEF4FE757
:101CF00057E40E94190318164CF5698D7A8D8B8D67
:101D00009C8D20E030E040E251E40E941F02DC01A3
:101D1000CB01BC01CD010E944900DC01CB019C8BB1
:101D20008B8B0FC089E190E09A8B898B89899A8986
:101D30000197F1F79A8B898B8B899C8901979C8BF2
:101D40008B8B8B899C89009769F714C06D897E897C
:101D50008F89988D0E944900DC01CB019C8B8B8B75
:101D60008B899C89988B8F878F8598890197F1F74C
:101D7000988B8F878F8D98A1019698A38F8F2F8D29
:101D800038A189A19AA18217930708F07BCF89A176
:101D90009AA19E8F8D8F7DC02D8D3E8D81E0B901E2
:101DA0000E94B10780E090E0A0E2B1E48B879C87BD
:101DB000AD87BE876B857C858D859E8520E030E074
:101DC0004AE753E40E941F02DC01CB018F8398870E
:101DD000A987BA876F81788589859A8520E030E068
:101DE00040E85FE30E94790388232CF481E090E0CF
:101DF0009E838D833FC06F81788589859A8520E099
:101E00003FEF4FE757E40E94190318164CF56B8516
:101E10007C858D859E8520E030E040E251E40E9483
:101E20001F02DC01CB01BC01CD010E944900DC0195
:101E3000CB019E838D830FC089E190E09C838B83CF
:101E40008B819C810197F1F79C838B838D819E818F
:101E500001979E838D838D819E81009769F714C0C1
:101E60006F81788589859A850E944900DC01CB01C4
:101E70009E838D838D819E819A83898389819A81B6
:101E80000197F1F79A8389838D8D9E8D01979E8F9F
:101E90008D8F2D8D3E8D8BA19CA12817390708F0C1
:101EA0007BCFA4960FB6F894DEBF0FBECDBFCF9107
:101EB000DF910895DF93CF93CDB7DEB781E063E084
:101EC00041E00E948C0980E00E942D0780E00E9482
:101ED000530880E060EE70E00E941E0820EA3DE0BA
:101EE00080E060ED77E040E450E00E94E80783E0A6
:101EF00065E041E00E948C0981E00E9453080E9445
:101F0000280EFDCF2F923F924F925F926F927F9259
:101F10008F929F92AF92BF92CF92DF92EF92FF92F9
:101F20000F931F93CF93DF93CDB7DEB7CA1BDB0BA5
:101F30000FB6F894DEBF0FBECDBF09942A8839884A
:101F400048885F846E847D848C849B84AA84B98451
:101F5000C884DF80EE80FD800C811B81AA81B9815D
:101F6000CE0FD11D0FB6F894DEBF0FBECDBFED0171
:061F70000895F894FFCF74
:081F7600000000000000000063
:00000001FF
